{
  "abi": [
    {
      "inputs": [
        {
          "internalType": "address",
          "name": "_whitelister",
          "type": "address"
        }
      ],
      "stateMutability": "nonpayable",
      "type": "constructor"
    },
    {
      "anonymous": false,
      "inputs": [
        {
          "indexed": true,
          "internalType": "address",
          "name": "account",
          "type": "address"
        },
        {
          "indexed": true,
          "internalType": "address",
          "name": "operator",
          "type": "address"
        },
        {
          "indexed": false,
          "internalType": "bool",
          "name": "approved",
          "type": "bool"
        }
      ],
      "name": "ApprovalForAll",
      "type": "event"
    },
    {
      "anonymous": false,
      "inputs": [
        {
          "indexed": true,
          "internalType": "address",
          "name": "user",
          "type": "address"
        },
        {
          "indexed": true,
          "internalType": "uint256",
          "name": "tokenId",
          "type": "uint256"
        },
        {
          "indexed": false,
          "internalType": "uint256",
          "name": "amount",
          "type": "uint256"
        }
      ],
      "name": "Claimed",
      "type": "event"
    },
    {
      "anonymous": false,
      "inputs": [
        {
          "indexed": true,
          "internalType": "address",
          "name": "previousOwner",
          "type": "address"
        },
        {
          "indexed": true,
          "internalType": "address",
          "name": "newOwner",
          "type": "address"
        }
      ],
      "name": "OwnershipTransferred",
      "type": "event"
    },
    {
      "anonymous": false,
      "inputs": [
        {
          "indexed": false,
          "internalType": "address",
          "name": "account",
          "type": "address"
        }
      ],
      "name": "Paused",
      "type": "event"
    },
    {
      "anonymous": false,
      "inputs": [
        {
          "indexed": true,
          "internalType": "address",
          "name": "user",
          "type": "address"
        },
        {
          "indexed": true,
          "internalType": "uint256",
          "name": "tokenId",
          "type": "uint256"
        }
      ],
      "name": "RemovedFromWhitelist",
      "type": "event"
    },
    {
      "anonymous": false,
      "inputs": [
        {
          "indexed": true,
          "internalType": "address",
          "name": "operator",
          "type": "address"
        },
        {
          "indexed": true,
          "internalType": "address",
          "name": "from",
          "type": "address"
        },
        {
          "indexed": true,
          "internalType": "address",
          "name": "to",
          "type": "address"
        },
        {
          "indexed": false,
          "internalType": "uint256[]",
          "name": "ids",
          "type": "uint256[]"
        },
        {
          "indexed": false,
          "internalType": "uint256[]",
          "name": "values",
          "type": "uint256[]"
        }
      ],
      "name": "TransferBatch",
      "type": "event"
    },
    {
      "anonymous": false,
      "inputs": [
        {
          "indexed": true,
          "internalType": "address",
          "name": "operator",
          "type": "address"
        },
        {
          "indexed": true,
          "internalType": "address",
          "name": "from",
          "type": "address"
        },
        {
          "indexed": true,
          "internalType": "address",
          "name": "to",
          "type": "address"
        },
        {
          "indexed": false,
          "internalType": "uint256",
          "name": "id",
          "type": "uint256"
        },
        {
          "indexed": false,
          "internalType": "uint256",
          "name": "value",
          "type": "uint256"
        }
      ],
      "name": "TransferSingle",
      "type": "event"
    },
    {
      "anonymous": false,
      "inputs": [
        {
          "indexed": false,
          "internalType": "string",
          "name": "value",
          "type": "string"
        },
        {
          "indexed": true,
          "internalType": "uint256",
          "name": "id",
          "type": "uint256"
        }
      ],
      "name": "URI",
      "type": "event"
    },
    {
      "anonymous": false,
      "inputs": [
        {
          "indexed": false,
          "internalType": "address",
          "name": "account",
          "type": "address"
        }
      ],
      "name": "Unpaused",
      "type": "event"
    },
    {
      "anonymous": false,
      "inputs": [
        {
          "indexed": true,
          "internalType": "address",
          "name": "user",
          "type": "address"
        },
        {
          "indexed": true,
          "internalType": "uint256",
          "name": "tokenId",
          "type": "uint256"
        },
        {
          "indexed": false,
          "internalType": "uint256",
          "name": "amount",
          "type": "uint256"
        }
      ],
      "name": "Whitelisted",
      "type": "event"
    },
    {
      "inputs": [
        {
          "internalType": "address",
          "name": "account",
          "type": "address"
        },
        {
          "internalType": "uint256",
          "name": "id",
          "type": "uint256"
        }
      ],
      "name": "balanceOf",
      "outputs": [
        {
          "internalType": "uint256",
          "name": "",
          "type": "uint256"
        }
      ],
      "stateMutability": "view",
      "type": "function"
    },
    {
      "inputs": [
        {
          "internalType": "address[]",
          "name": "accounts",
          "type": "address[]"
        },
        {
          "internalType": "uint256[]",
          "name": "ids",
          "type": "uint256[]"
        }
      ],
      "name": "balanceOfBatch",
      "outputs": [
        {
          "internalType": "uint256[]",
          "name": "",
          "type": "uint256[]"
        }
      ],
      "stateMutability": "view",
      "type": "function"
    },
    {
      "inputs": [
        {
          "internalType": "address[]",
          "name": "accounts",
          "type": "address[]"
        },
        {
          "internalType": "uint256[]",
          "name": "tokenIds",
          "type": "uint256[]"
        }
      ],
      "name": "batchRemoveFromWhitelist",
      "outputs": [],
      "stateMutability": "nonpayable",
      "type": "function"
    },
    {
      "inputs": [
        {
          "internalType": "address[]",
          "name": "accounts",
          "type": "address[]"
        },
        {
          "internalType": "uint256[]",
          "name": "tokenIds",
          "type": "uint256[]"
        },
        {
          "internalType": "uint256[]",
          "name": "amounts",
          "type": "uint256[]"
        }
      ],
      "name": "batchWhitelistAccounts",
      "outputs": [],
      "stateMutability": "nonpayable",
      "type": "function"
    },
    {
      "inputs": [
        {
          "internalType": "uint256",
          "name": "tokenId",
          "type": "uint256"
        },
        {
          "internalType": "uint256",
          "name": "amount",
          "type": "uint256"
        }
      ],
      "name": "claim",
      "outputs": [],
      "stateMutability": "nonpayable",
      "type": "function"
    },
    {
      "inputs": [
        {
          "internalType": "address",
          "name": "user",
          "type": "address"
        },
        {
          "internalType": "uint256",
          "name": "tokenId",
          "type": "uint256"
        }
      ],
      "name": "claimableTokens",
      "outputs": [
        {
          "internalType": "uint256",
          "name": "",
          "type": "uint256"
        }
      ],
      "stateMutability": "view",
      "type": "function"
    },
    {
      "inputs": [
        {
          "internalType": "address",
          "name": "",
          "type": "address"
        },
        {
          "internalType": "uint256",
          "name": "",
          "type": "uint256"
        }
      ],
      "name": "claimed",
      "outputs": [
        {
          "internalType": "uint256",
          "name": "",
          "type": "uint256"
        }
      ],
      "stateMutability": "view",
      "type": "function"
    },
    {
      "inputs": [
        {
          "internalType": "address",
          "name": "account",
          "type": "address"
        },
        {
          "internalType": "address",
          "name": "operator",
          "type": "address"
        }
      ],
      "name": "isApprovedForAll",
      "outputs": [
        {
          "internalType": "bool",
          "name": "",
          "type": "bool"
        }
      ],
      "stateMutability": "view",
      "type": "function"
    },
    {
      "inputs": [
        {
          "internalType": "address",
          "name": "",
          "type": "address"
        },
        {
          "internalType": "uint256",
          "name": "",
          "type": "uint256"
        }
      ],
      "name": "minters",
      "outputs": [
        {
          "internalType": "uint256",
          "name": "",
          "type": "uint256"
        }
      ],
      "stateMutability": "view",
      "type": "function"
    },
    {
      "inputs": [],
      "name": "owner",
      "outputs": [
        {
          "internalType": "address",
          "name": "",
          "type": "address"
        }
      ],
      "stateMutability": "view",
      "type": "function"
    },
    {
      "inputs": [],
      "name": "pause",
      "outputs": [],
      "stateMutability": "nonpayable",
      "type": "function"
    },
    {
      "inputs": [],
      "name": "paused",
      "outputs": [
        {
          "internalType": "bool",
          "name": "",
          "type": "bool"
        }
      ],
      "stateMutability": "view",
      "type": "function"
    },
    {
      "inputs": [
        {
          "internalType": "address",
          "name": "account",
          "type": "address"
        },
        {
          "internalType": "uint256",
          "name": "tokenId",
          "type": "uint256"
        }
      ],
      "name": "removeAccountFromWhitelist",
      "outputs": [],
      "stateMutability": "nonpayable",
      "type": "function"
    },
    {
      "inputs": [],
      "name": "renounceOwnership",
      "outputs": [],
      "stateMutability": "nonpayable",
      "type": "function"
    },
    {
      "inputs": [
        {
          "internalType": "address",
          "name": "from",
          "type": "address"
        },
        {
          "internalType": "address",
          "name": "to",
          "type": "address"
        },
        {
          "internalType": "uint256[]",
          "name": "ids",
          "type": "uint256[]"
        },
        {
          "internalType": "uint256[]",
          "name": "amounts",
          "type": "uint256[]"
        },
        {
          "internalType": "bytes",
          "name": "data",
          "type": "bytes"
        }
      ],
      "name": "safeBatchTransferFrom",
      "outputs": [],
      "stateMutability": "nonpayable",
      "type": "function"
    },
    {
      "inputs": [
        {
          "internalType": "address",
          "name": "from",
          "type": "address"
        },
        {
          "internalType": "address",
          "name": "to",
          "type": "address"
        },
        {
          "internalType": "uint256",
          "name": "id",
          "type": "uint256"
        },
        {
          "internalType": "uint256",
          "name": "amount",
          "type": "uint256"
        },
        {
          "internalType": "bytes",
          "name": "data",
          "type": "bytes"
        }
      ],
      "name": "safeTransferFrom",
      "outputs": [],
      "stateMutability": "nonpayable",
      "type": "function"
    },
    {
      "inputs": [
        {
          "internalType": "address",
          "name": "operator",
          "type": "address"
        },
        {
          "internalType": "bool",
          "name": "approved",
          "type": "bool"
        }
      ],
      "name": "setApprovalForAll",
      "outputs": [],
      "stateMutability": "nonpayable",
      "type": "function"
    },
    {
      "inputs": [
        {
          "internalType": "uint256",
          "name": "tokenId",
          "type": "uint256"
        },
        {
          "internalType": "string",
          "name": "tokenUri",
          "type": "string"
        }
      ],
      "name": "setUri",
      "outputs": [],
      "stateMutability": "nonpayable",
      "type": "function"
    },
    {
      "inputs": [
        {
          "internalType": "address",
          "name": "_whitelister",
          "type": "address"
        }
      ],
      "name": "setWhitelister",
      "outputs": [],
      "stateMutability": "nonpayable",
      "type": "function"
    },
    {
      "inputs": [
        {
          "internalType": "bytes4",
          "name": "interfaceId",
          "type": "bytes4"
        }
      ],
      "name": "supportsInterface",
      "outputs": [
        {
          "internalType": "bool",
          "name": "",
          "type": "bool"
        }
      ],
      "stateMutability": "view",
      "type": "function"
    },
    {
      "inputs": [
        {
          "internalType": "address",
          "name": "newOwner",
          "type": "address"
        }
      ],
      "name": "transferOwnership",
      "outputs": [],
      "stateMutability": "nonpayable",
      "type": "function"
    },
    {
      "inputs": [],
      "name": "unpause",
      "outputs": [],
      "stateMutability": "nonpayable",
      "type": "function"
    },
    {
      "inputs": [
        {
          "internalType": "uint256",
          "name": "tokenId",
          "type": "uint256"
        }
      ],
      "name": "uri",
      "outputs": [
        {
          "internalType": "string",
          "name": "",
          "type": "string"
        }
      ],
      "stateMutability": "view",
      "type": "function"
    },
    {
      "inputs": [
        {
          "internalType": "address",
          "name": "account",
          "type": "address"
        },
        {
          "internalType": "uint256",
          "name": "tokenId",
          "type": "uint256"
        },
        {
          "internalType": "uint256",
          "name": "amount",
          "type": "uint256"
        }
      ],
      "name": "whitelistAccount",
      "outputs": [],
      "stateMutability": "nonpayable",
      "type": "function"
    },
    {
      "inputs": [],
      "name": "whitelister",
      "outputs": [
        {
          "internalType": "address",
          "name": "",
          "type": "address"
        }
      ],
      "stateMutability": "view",
      "type": "function"
    }
  ],
  "bytecode": {
    "object": "0x60806040523480156200001157600080fd5b5060405162002aff38038062002aff83398101604081905262000034916200019e565b6040805160208101909152600081526200004e816200008d565b506200005a33620000a6565b6003805460ff60a01b19169055600780546001600160a01b0319166001600160a01b03929092169190911790556200020d565b8051620000a2906002906020840190620000f8565b5050565b600380546001600160a01b038381166001600160a01b0319831681179093556040519116919082907f8be0079c531659141344cd1fd0a4f28419497f9722a3daafe3b4186f6b6457e090600090a35050565b8280546200010690620001d0565b90600052602060002090601f0160209004810192826200012a576000855562000175565b82601f106200014557805160ff191683800117855562000175565b8280016001018555821562000175579182015b828111156200017557825182559160200191906001019062000158565b506200018392915062000187565b5090565b5b8082111562000183576000815560010162000188565b600060208284031215620001b157600080fd5b81516001600160a01b0381168114620001c957600080fd5b9392505050565b600181811c90821680620001e557607f821691505b602082108114156200020757634e487b7160e01b600052602260045260246000fd5b50919050565b6128e2806200021d6000396000f3fe608060405234801561001057600080fd5b50600436106101a25760003560e01c806378746d0d116100ee578063aea6eee811610097578063f242432a11610071578063f242432a146103c2578063f2fde38b146103d5578063f53215c3146103e8578063f98f5b92146103fb57600080fd5b8063aea6eee814610360578063c349026314610373578063e985e9c51461038657600080fd5b80638da5cb5b116100c85780638da5cb5b14610329578063912d5abe1461033a578063a22cb4651461034d57600080fd5b806378746d0d146102e35780638456cb591461030e578063867383c01461031657600080fd5b80633f4ba83a116101505780635c975abb1161012a5780635c975abb146102b6578063715018a6146102c8578063782f08ae146102d057600080fd5b80633f4ba83a146102635780634dd6c8de1461026b5780634e1273f41461029657600080fd5b8063175fbc5211610181578063175fbc521461021057806322758a4a146102255780632eb2c2d61461025057600080fd5b8062fdd58e146101a757806301ffc9a7146101cd5780630e89341c146101f0575b600080fd5b6101ba6101b5366004611f93565b61040e565b6040519081526020015b60405180910390f35b6101e06101db366004611fd3565b6104b7565b60405190151581526020016101c4565b6102036101fe366004611ff0565b610554565b6040516101c49190612056565b61022361021e366004612069565b6105f6565b005b600754610238906001600160a01b031681565b6040516001600160a01b0390911681526020016101c4565b61022361025e3660046121f2565b61087d565b61022361091f565b6101ba610279366004611f93565b600560209081526000928352604080842090915290825290205481565b6102a96102a436600461229c565b610983565b6040516101c491906123a2565b600354600160a01b900460ff166101e0565b610223610ac1565b6102236102de3660046123b5565b610b25565b6101ba6102f1366004611f93565b600460209081526000928352604080842090915290825290205481565b610223610c83565b610223610324366004612452565b610ce5565b6003546001600160a01b0316610238565b6102236103483660046124ec565b610df7565b61022361035b366004612558565b610eee565b61022361036e366004611f93565b610efd565b610223610381366004612594565b61106c565b6101e06103943660046125b6565b6001600160a01b03918216600090815260016020908152604080832093909416825291909152205460ff1690565b6102236103d03660046125e9565b61114b565b6102236103e336600461264e565b6111e6565b6101ba6103f6366004611f93565b6112c8565b61022361040936600461264e565b611311565b60006001600160a01b0383166104915760405162461bcd60e51b815260206004820152602a60248201527f455243313135353a2061646472657373207a65726f206973206e6f742061207660448201527f616c6964206f776e65720000000000000000000000000000000000000000000060648201526084015b60405180910390fd5b506000908152602081815260408083206001600160a01b03949094168352929052205490565b60006001600160e01b031982167fd9b67a2600000000000000000000000000000000000000000000000000000000148061051a57506001600160e01b031982167f0e89341c00000000000000000000000000000000000000000000000000000000145b8061054e57507f01ffc9a7000000000000000000000000000000000000000000000000000000006001600160e01b03198316145b92915050565b600081815260066020526040902080546060919061057190612669565b80601f016020809104026020016040519081016040528092919081815260200182805461059d90612669565b80156105ea5780601f106105bf576101008083540402835291602001916105ea565b820191906000526020600020905b8154815290600101906020018083116105cd57829003601f168201915b50505050509050919050565b6007546001600160a01b0316336001600160a01b03161461067f5760405162461bcd60e51b815260206004820152603d60248201527f4e465452657761726465723a204f6e6c792077686974656c697374657220616360448201527f636f756e742063616e206d616e616765206d696e74657273206c6973740000006064820152608401610488565b6001600160a01b0383166106fb5760405162461bcd60e51b815260206004820152602960248201527f4e465452657761726465723a2043616e27742077686974656c697374207a657260448201527f6f206164647265737300000000000000000000000000000000000000000000006064820152608401610488565b600081116107715760405162461bcd60e51b815260206004820152603960248201527f4e465452657761726465723a2057686974656c697374656420616d6f756e742060448201527f6d7573742062652067726561746572207468616e207a65726f000000000000006064820152608401610488565b6000828152600660205260408120805461078a90612669565b9050116107ff5760405162461bcd60e51b815260206004820152603b60248201527f4e465452657761726465723a205552492068617320746f20626520736574206260448201527f65666f72652077686974656c697374696e67206163636f756e747300000000006064820152608401610488565b6001600160a01b0383166000908152600460209081526040808320858452909152812080548392906108329084906126ba565b909155505060405181815282906001600160a01b038516907f1b2d5773afec568c98779f6b1382306a08df138d18b1118d2ec11fece4d1e8b5906020015b60405180910390a3505050565b6001600160a01b03851633148061089957506108998533610394565b61090b5760405162461bcd60e51b815260206004820152603260248201527f455243313135353a207472616e736665722063616c6c6572206973206e6f742060448201527f6f776e6572206e6f7220617070726f76656400000000000000000000000000006064820152608401610488565b610918858585858561139a565b5050505050565b6003546001600160a01b031633146109795760405162461bcd60e51b815260206004820181905260248201527f4f776e61626c653a2063616c6c6572206973206e6f7420746865206f776e65726044820152606401610488565b610981611613565b565b606081518351146109fc5760405162461bcd60e51b815260206004820152602960248201527f455243313135353a206163636f756e747320616e6420696473206c656e67746860448201527f206d69736d6174636800000000000000000000000000000000000000000000006064820152608401610488565b6000835167ffffffffffffffff811115610a1857610a1861209c565b604051908082528060200260200182016040528015610a41578160200160208202803683370190505b50905060005b8451811015610ab957610a8c858281518110610a6557610a656126d2565b6020026020010151858381518110610a7f57610a7f6126d2565b602002602001015161040e565b828281518110610a9e57610a9e6126d2565b6020908102919091010152610ab2816126e8565b9050610a47565b509392505050565b6003546001600160a01b03163314610b1b5760405162461bcd60e51b815260206004820181905260248201527f4f776e61626c653a2063616c6c6572206973206e6f7420746865206f776e65726044820152606401610488565b61098160006116b9565b6003546001600160a01b03163314610b7f5760405162461bcd60e51b815260206004820181905260248201527f4f776e61626c653a2063616c6c6572206973206e6f7420746865206f776e65726044820152606401610488565b60008281526006602052604090208054610b9890612669565b159050610be75760405162461bcd60e51b815260206004820152601d60248201527f4e465452657761726465723a2055524920616c726561647920736574210000006044820152606401610488565b60008281526006602090815260409091208251610c0692840190611ede565b50817f6bb7ff708619ba0610cba295a58592e0451dee2622938c8755667688daf3529b82604051610c379190612056565b60405180910390a26040805183815260006020820181905291829133917fc3d58168c5ae7397731d063d5bbf3d657854427343f4c083240f7aacaa2d0f62910160405180910390a45050565b6003546001600160a01b03163314610cdd5760405162461bcd60e51b815260206004820181905260248201527f4f776e61626c653a2063616c6c6572206973206e6f7420746865206f776e65726044820152606401610488565b610981611718565b6007546001600160a01b0316336001600160a01b031614610d6e5760405162461bcd60e51b815260206004820152603d60248201527f4e465452657761726465723a204f6e6c792077686974656c697374657220616360448201527f636f756e742063616e206d616e616765206d696e74657273206c6973740000006064820152608401610488565b8460005b81811015610ded57610ddb888883818110610d8f57610d8f6126d2565b9050602002016020810190610da4919061264e565b878784818110610db657610db66126d2565b90506020020135868685818110610dcf57610dcf6126d2565b905060200201356105f6565b80610de5816126e8565b915050610d72565b5050505050505050565b6007546001600160a01b0316336001600160a01b031614610e805760405162461bcd60e51b815260206004820152603d60248201527f4e465452657761726465723a204f6e6c792077686974656c697374657220616360448201527f636f756e742063616e206d616e616765206d696e74657273206c6973740000006064820152608401610488565b8260005b81811015610ee657610ed4868683818110610ea157610ea16126d2565b9050602002016020810190610eb6919061264e565b858584818110610ec857610ec86126d2565b90506020020135610efd565b80610ede816126e8565b915050610e84565b505050505050565b610ef93383836117ad565b5050565b6007546001600160a01b0316336001600160a01b031614610f865760405162461bcd60e51b815260206004820152603d60248201527f4e465452657761726465723a204f6e6c792077686974656c697374657220616360448201527f636f756e742063616e206d616e616765206d696e74657273206c6973740000006064820152608401610488565b6001600160a01b0382166110025760405162461bcd60e51b815260206004820152602c60248201527f4e465452657761726465723a2043616e27742064652d77686974656c6973742060448201527f7a65726f206164647265737300000000000000000000000000000000000000006064820152608401610488565b6001600160a01b038216600081815260056020908152604080832085845282528083205484845260048352818420868552909252808320829055519092849290917f031e2f7b58119201ea1f3c2d1070d142de895fa9e98f585672341d0973c8d00a9190a3505050565b8061107733846112c8565b10156110c55760405162461bcd60e51b815260206004820181905260248201527f4e465452657761726465723a204e6f20636c61696d61626c6520746f6b656e736044820152606401610488565b336000908152600560209081526040808320858452909152812080548392906110ef9084906126ba565b9091555061111090503383836040518060200160405280600081525061189a565b604051818152829033907f987d620f307ff6b94d58743cb7a7509f24071586a77759b77c2d4e29f75a2f9a9060200160405180910390a35050565b6001600160a01b03851633148061116757506111678533610394565b6111d95760405162461bcd60e51b815260206004820152602960248201527f455243313135353a2063616c6c6572206973206e6f74206f776e6572206e6f7260448201527f20617070726f76656400000000000000000000000000000000000000000000006064820152608401610488565b61091885858585856119d9565b6003546001600160a01b031633146112405760405162461bcd60e51b815260206004820181905260248201527f4f776e61626c653a2063616c6c6572206973206e6f7420746865206f776e65726044820152606401610488565b6001600160a01b0381166112bc5760405162461bcd60e51b815260206004820152602660248201527f4f776e61626c653a206e6577206f776e657220697320746865207a65726f206160448201527f64647265737300000000000000000000000000000000000000000000000000006064820152608401610488565b6112c5816116b9565b50565b6001600160a01b038216600081815260056020908152604080832085845282528083205493835260048252808320858452909152812054909161130a91612703565b9392505050565b6003546001600160a01b0316331461136b5760405162461bcd60e51b815260206004820181905260248201527f4f776e61626c653a2063616c6c6572206973206e6f7420746865206f776e65726044820152606401610488565b6007805473ffffffffffffffffffffffffffffffffffffffff19166001600160a01b0392909216919091179055565b81518351146114115760405162461bcd60e51b815260206004820152602860248201527f455243313135353a2069647320616e6420616d6f756e7473206c656e6774682060448201527f6d69736d617463680000000000000000000000000000000000000000000000006064820152608401610488565b6001600160a01b0384166114755760405162461bcd60e51b815260206004820152602560248201527f455243313135353a207472616e7366657220746f20746865207a65726f206164604482015264647265737360d81b6064820152608401610488565b33611484818787878787611b92565b60005b84518110156115ad5760008582815181106114a4576114a46126d2565b6020026020010151905060008583815181106114c2576114c26126d2565b602090810291909101810151600084815280835260408082206001600160a01b038e1683529093529190912054909150818110156115555760405162461bcd60e51b815260206004820152602a60248201527f455243313135353a20696e73756666696369656e742062616c616e636520666f60448201526939103a3930b739b332b960b11b6064820152608401610488565b6000838152602081815260408083206001600160a01b038e8116855292528083208585039055908b168252812080548492906115929084906126ba565b92505081905550505050806115a6906126e8565b9050611487565b50846001600160a01b0316866001600160a01b0316826001600160a01b03167f4a39dc06d4c0dbc64b70af90fd698a233a518aa5d07e595d983b8c0526c8f7fb87876040516115fd92919061271a565b60405180910390a4610ee6818787878787611bf1565b600354600160a01b900460ff1661166c5760405162461bcd60e51b815260206004820152601460248201527f5061757361626c653a206e6f74207061757365640000000000000000000000006044820152606401610488565b6003805460ff60a01b191690557f5db9ee0a495bf2e6ff9c91a7834c1ba4fdd244a5e8aa4e537bd38aeae4b073aa335b6040516001600160a01b03909116815260200160405180910390a1565b600380546001600160a01b0383811673ffffffffffffffffffffffffffffffffffffffff19831681179093556040519116919082907f8be0079c531659141344cd1fd0a4f28419497f9722a3daafe3b4186f6b6457e090600090a35050565b600354600160a01b900460ff16156117725760405162461bcd60e51b815260206004820152601060248201527f5061757361626c653a20706175736564000000000000000000000000000000006044820152606401610488565b6003805460ff60a01b1916600160a01b1790557f62e78cea01bee320cd4e420270b5ea74000d11b0c9f74754ebdbfc544b05a25861169c3390565b816001600160a01b0316836001600160a01b031614156118355760405162461bcd60e51b815260206004820152602960248201527f455243313135353a2073657474696e6720617070726f76616c2073746174757360448201527f20666f722073656c6600000000000000000000000000000000000000000000006064820152608401610488565b6001600160a01b03838116600081815260016020908152604080832094871680845294825291829020805460ff191686151590811790915591519182527f17307eab39ab6107e8899845ad3d59bd9653f200f220920489ca2b5937696c319101610870565b6001600160a01b0384166119165760405162461bcd60e51b815260206004820152602160248201527f455243313135353a206d696e7420746f20746865207a65726f2061646472657360448201527f73000000000000000000000000000000000000000000000000000000000000006064820152608401610488565b33600061192285611d97565b9050600061192f85611d97565b905061194083600089858589611b92565b6000868152602081815260408083206001600160a01b038b168452909152812080548792906119709084906126ba565b909155505060408051878152602081018790526001600160a01b03808a1692600092918716917fc3d58168c5ae7397731d063d5bbf3d657854427343f4c083240f7aacaa2d0f62910160405180910390a46119d083600089898989611de2565b50505050505050565b6001600160a01b038416611a3d5760405162461bcd60e51b815260206004820152602560248201527f455243313135353a207472616e7366657220746f20746865207a65726f206164604482015264647265737360d81b6064820152608401610488565b336000611a4985611d97565b90506000611a5685611d97565b9050611a66838989858589611b92565b6000868152602081815260408083206001600160a01b038c16845290915290205485811015611aea5760405162461bcd60e51b815260206004820152602a60248201527f455243313135353a20696e73756666696369656e742062616c616e636520666f60448201526939103a3930b739b332b960b11b6064820152608401610488565b6000878152602081815260408083206001600160a01b038d8116855292528083208985039055908a16825281208054889290611b279084906126ba565b909155505060408051888152602081018890526001600160a01b03808b16928c821692918816917fc3d58168c5ae7397731d063d5bbf3d657854427343f4c083240f7aacaa2d0f62910160405180910390a4611b87848a8a8a8a8a611de2565b505050505050505050565b600354600160a01b900460ff1615611bec5760405162461bcd60e51b815260206004820152601060248201527f5061757361626c653a20706175736564000000000000000000000000000000006044820152606401610488565b610ee6565b6001600160a01b0384163b15610ee65760405163bc197c8160e01b81526001600160a01b0385169063bc197c8190611c359089908990889088908890600401612748565b6020604051808303816000875af1925050508015611c70575060408051601f3d908101601f19168201909252611c6d918101906127a6565b60015b611d2657611c7c6127c3565b806308c379a01415611cb65750611c916127df565b80611c9c5750611cb8565b8060405162461bcd60e51b81526004016104889190612056565b505b60405162461bcd60e51b815260206004820152603460248201527f455243313135353a207472616e7366657220746f206e6f6e204552433131353560448201527f526563656976657220696d706c656d656e7465720000000000000000000000006064820152608401610488565b6001600160e01b0319811663bc197c8160e01b146119d05760405162461bcd60e51b815260206004820152602860248201527f455243313135353a204552433131353552656365697665722072656a656374656044820152676420746f6b656e7360c01b6064820152608401610488565b60408051600180825281830190925260609160009190602080830190803683370190505090508281600081518110611dd157611dd16126d2565b602090810291909101015292915050565b6001600160a01b0384163b15610ee65760405163f23a6e6160e01b81526001600160a01b0385169063f23a6e6190611e269089908990889088908890600401612869565b6020604051808303816000875af1925050508015611e61575060408051601f3d908101601f19168201909252611e5e918101906127a6565b60015b611e6d57611c7c6127c3565b6001600160e01b0319811663f23a6e6160e01b146119d05760405162461bcd60e51b815260206004820152602860248201527f455243313135353a204552433131353552656365697665722072656a656374656044820152676420746f6b656e7360c01b6064820152608401610488565b828054611eea90612669565b90600052602060002090601f016020900481019282611f0c5760008555611f52565b82601f10611f2557805160ff1916838001178555611f52565b82800160010185558215611f52579182015b82811115611f52578251825591602001919060010190611f37565b50611f5e929150611f62565b5090565b5b80821115611f5e5760008155600101611f63565b80356001600160a01b0381168114611f8e57600080fd5b919050565b60008060408385031215611fa657600080fd5b611faf83611f77565b946020939093013593505050565b6001600160e01b0319811681146112c557600080fd5b600060208284031215611fe557600080fd5b813561130a81611fbd565b60006020828403121561200257600080fd5b5035919050565b6000815180845260005b8181101561202f57602081850181015186830182015201612013565b81811115612041576000602083870101525b50601f01601f19169290920160200192915050565b60208152600061130a6020830184612009565b60008060006060848603121561207e57600080fd5b61208784611f77565b95602085013595506040909401359392505050565b634e487b7160e01b600052604160045260246000fd5b601f8201601f1916810167ffffffffffffffff811182821017156120d8576120d861209c565b6040525050565b600067ffffffffffffffff8211156120f9576120f961209c565b5060051b60200190565b600082601f83011261211457600080fd5b81356020612121826120df565b60405161212e82826120b2565b83815260059390931b850182019282810191508684111561214e57600080fd5b8286015b848110156121695780358352918301918301612152565b509695505050505050565b600067ffffffffffffffff83111561218e5761218e61209c565b6040516121a5601f8501601f1916602001826120b2565b8091508381528484840111156121ba57600080fd5b83836020830137600060208583010152509392505050565b600082601f8301126121e357600080fd5b61130a83833560208501612174565b600080600080600060a0868803121561220a57600080fd5b61221386611f77565b945061222160208701611f77565b9350604086013567ffffffffffffffff8082111561223e57600080fd5b61224a89838a01612103565b9450606088013591508082111561226057600080fd5b61226c89838a01612103565b9350608088013591508082111561228257600080fd5b5061228f888289016121d2565b9150509295509295909350565b600080604083850312156122af57600080fd5b823567ffffffffffffffff808211156122c757600080fd5b818501915085601f8301126122db57600080fd5b813560206122e8826120df565b6040516122f582826120b2565b83815260059390931b850182019282810191508984111561231557600080fd5b948201945b8386101561233a5761232b86611f77565b8252948201949082019061231a565b9650508601359250508082111561235057600080fd5b5061235d85828601612103565b9150509250929050565b600081518084526020808501945080840160005b838110156123975781518752958201959082019060010161237b565b509495945050505050565b60208152600061130a6020830184612367565b600080604083850312156123c857600080fd5b82359150602083013567ffffffffffffffff8111156123e657600080fd5b8301601f810185136123f757600080fd5b61235d85823560208401612174565b60008083601f84011261241857600080fd5b50813567ffffffffffffffff81111561243057600080fd5b6020830191508360208260051b850101111561244b57600080fd5b9250929050565b6000806000806000806060878903121561246b57600080fd5b863567ffffffffffffffff8082111561248357600080fd5b61248f8a838b01612406565b909850965060208901359150808211156124a857600080fd5b6124b48a838b01612406565b909650945060408901359150808211156124cd57600080fd5b506124da89828a01612406565b979a9699509497509295939492505050565b6000806000806040858703121561250257600080fd5b843567ffffffffffffffff8082111561251a57600080fd5b61252688838901612406565b9096509450602087013591508082111561253f57600080fd5b5061254c87828801612406565b95989497509550505050565b6000806040838503121561256b57600080fd5b61257483611f77565b91506020830135801515811461258957600080fd5b809150509250929050565b600080604083850312156125a757600080fd5b50508035926020909101359150565b600080604083850312156125c957600080fd5b6125d283611f77565b91506125e060208401611f77565b90509250929050565b600080600080600060a0868803121561260157600080fd5b61260a86611f77565b945061261860208701611f77565b93506040860135925060608601359150608086013567ffffffffffffffff81111561264257600080fd5b61228f888289016121d2565b60006020828403121561266057600080fd5b61130a82611f77565b600181811c9082168061267d57607f821691505b6020821081141561269e57634e487b7160e01b600052602260045260246000fd5b50919050565b634e487b7160e01b600052601160045260246000fd5b600082198211156126cd576126cd6126a4565b500190565b634e487b7160e01b600052603260045260246000fd5b60006000198214156126fc576126fc6126a4565b5060010190565b600082821015612715576127156126a4565b500390565b60408152600061272d6040830185612367565b828103602084015261273f8185612367565b95945050505050565b60006001600160a01b03808816835280871660208401525060a0604083015261277460a0830186612367565b82810360608401526127868186612367565b9050828103608084015261279a8185612009565b98975050505050505050565b6000602082840312156127b857600080fd5b815161130a81611fbd565b600060033d11156127dc5760046000803e5060005160e01c5b90565b600060443d10156127ed5790565b6040516003193d81016004833e81513d67ffffffffffffffff816024840111818411171561281d57505050505090565b82850191508151818111156128355750505050505090565b843d870101602082850101111561284f5750505050505090565b61285e602082860101876120b2565b509095945050505050565b60006001600160a01b03808816835280871660208401525084604083015283606083015260a060808301526128a160a0830184612009565b97965050505050505056fea26469706673582212203453a0dfed4a40c163afe855b81a75372521a8eb8b1d58cc045ce7afb8be385564736f6c634300080c0033",
    "linkReferences": {}
  },
  "methodIdentifiers": {
    "balanceOf(address,uint256)": "00fdd58e",
    "balanceOfBatch(address[],uint256[])": "4e1273f4",
    "batchRemoveFromWhitelist(address[],uint256[])": "912d5abe",
    "batchWhitelistAccounts(address[],uint256[],uint256[])": "867383c0",
    "claim(uint256,uint256)": "c3490263",
    "claimableTokens(address,uint256)": "f53215c3",
    "claimed(address,uint256)": "4dd6c8de",
    "isApprovedForAll(address,address)": "e985e9c5",
    "minters(address,uint256)": "78746d0d",
    "owner()": "8da5cb5b",
    "pause()": "8456cb59",
    "paused()": "5c975abb",
    "removeAccountFromWhitelist(address,uint256)": "aea6eee8",
    "renounceOwnership()": "715018a6",
    "safeBatchTransferFrom(address,address,uint256[],uint256[],bytes)": "2eb2c2d6",
    "safeTransferFrom(address,address,uint256,uint256,bytes)": "f242432a",
    "setApprovalForAll(address,bool)": "a22cb465",
    "setUri(uint256,string)": "782f08ae",
    "setWhitelister(address)": "f98f5b92",
    "supportsInterface(bytes4)": "01ffc9a7",
    "transferOwnership(address)": "f2fde38b",
    "unpause()": "3f4ba83a",
    "uri(uint256)": "0e89341c",
    "whitelistAccount(address,uint256,uint256)": "175fbc52",
    "whitelister()": "22758a4a"
  },
  "id": 16
}